:020000040000FA
:020000000528D1
:040002000034003492
:06000A00831603138601BA
:1000100083160313FF3085008316031788018316A8
:1000200003178901831203138601A001A401A5010E
:10003000A6011E2025183220272019280508A40013
:10004000241E08003D20051A08002B200800A60ADF
:100050002608860019280030A600A000A50A013055
:10006000A505080020084C2086003D20A00A13307A
:100070002002031D1928A00119280A30A3004320DB
:10008000A30B3F280800FF30A1001A30A200A10BEB
:100090004728A20B4728080082078034C034E03488
:1000A000703438341C340E340734033401340334D0
:1000B00007340E341C3438347034E034C0348034A7
:0200C000080036
:00000001FF
