:020000040000FA
:020000000528D1
:040002000034003492
:06000A00831603138601BA
:1000100083160313FF3085008316031788018316A8
:1000200003178901831203138601A001A401A5010E
:10003000A6011E2025183320272019280508A40012
:10004000241E08003E20051A08002C200800A60ADD
:10005000260886003E2019280030A600A000A50A28
:100060000130A505080020084D2086003E20A00A8A
:1000700012302002031D1928A00119280A30A300FC
:100080004420A30B40280800FF30A1001A30A20032
:10009000A10B4828A20B4828080082078034C034EE
:1000A000E034703438341C340E34073403340134F3
:1000B000033407340E341C3438347034E034C03424
:0200C000080036
:00000001FF
