:020000040000FA
:020000000528D1
:040002000034003492
:06000A00831603138601BA
:1000100083160313FF3085008316031788018316A8
:1000200003178901831203138601A501A301A60109
:10003000A401A701A801A901AA01222029183B2097
:100040002F201D2805081039A700230827060319AB
:1000500008002708A300031D080034200800AA0A8E
:100060002A08860046201D280030AA00A800A90AF8
:100070000130A90508002808552086004620A80A56
:1000800012302802031D1D28A8011D280530A200DA
:100090004C20A20B48280800FF30A0001A30A10015
:1000A000A00B5028A10B5028080082078034C034D0
:1000B000E034703438341C340E34073403340134E3
:1000C000033407340E341C3438347034E034C03414
:0200D000080026
:00000001FF
