:020000040000FA
:020000002028B6
:040002000034003492
:0200080071285D
:100040008316031789018316031788018316031388
:100050008601061483160313850183120313860198
:100060008312031385018316031347308100831223
:1000700003138B160B168B17A001A101A201A3017C
:100080000F30A6005B2020086520860005145D2047
:100090005B2021086520860085145D205B202208F6
:1000A0006520860005155D205B20230865208600FD
:1000B00085155D20422885010800FF30A400073027
:1000C000A500A40B6128A50B080082077E340C3420
:1000D000B6349E34CC34DA34FA340E34FE34DE34A2
:1000E0000800A700030EA8000B197D208B189B2089
:1000F000280E8300A70E270E09000B11A60B08007F
:100100000530A600A00A0A302002031D0800A00145
:10011000A10A06302102031D0800A101A20A0A302B
:100120002202031D0800A201A30A06302302031DB8
:100130000800A30108008B105D208B1AA028A228BC
:080140008B1208008B16080069
:00000001FF
