:020000040000FA
:020000000528D1
:040002000034003492
:020008002028AE
:06000A00831603178901B3
:1000100083160313F03086008801F03096008312B7
:10002000031306080F30860088018B178B151728DD
:10003000FF30A5000730A600A50B1C28A60B080062
:100040001820061086100611861106140608F039CD
:10005000031D5E28061086140608F039031D542877
:10006000861006150608F039031D4A280611861564
:100070000608F039031D40280F3086000B100900D8
:10008000A100211A8C28A11A8028211B7428A11BE9
:1000900068283C28A200221A8F28A21A8328221B33
:1000A0007728A21B6B283C28A300231A9228A31AA6
:1000B0008628231B7A28A31B6E283C28A400241A18
:1000C0009528A41A8928241B7D28A41B71283C2864
:1000D000013098203C28023098203C28033098209A
:1000E0003C280A3098203C28043098203C280530D1
:1000F00098203C28063098203C280B3098203C283B
:10010000073098203C28083098203C280930982057
:100110003C280C3098203C280E3098203C28003099
:1001200098203C280F3098203C280D3098203C28FF
:100130009B208800080082077E340C34B6349E343D
:10014000CC34DA34FA340E34FE34DE34BE34F834CF
:0A0150007234BC340234103408008D
:00000001FF
